:100000000C9462000C948A000C948A000C948A0070
:100010000C948A000C948A000C948A000C948A0038
:100020000C948A000C948A000C948A000C948A0028
:100030000C948A000C948A000C948A000C948A0018
:100040000C9414070C948A000C9460040C94A30480
:100050000C948A000C948A000C948A000C948A00F8
:100060000C948A000C948A00000000070002010032
:100070000003040600000000000000000102040864
:100080001020408001020408102001020408102002
:10009000040404040404040402020202020203032E
:1000A00003030303000000002300260029000000D2
:1000B0000000250028002B0000000000240027007D
:1000C0002A005F0511241FBECFEFD8E0DEBFCDBFF1
:1000D00011E0A0E0B1E0EEE1F3E102C005900D9285
:1000E000A435B107D9F712E0A4E5B1E001C01D9233
:1000F000A631B107E1F710E0C4ECD0E004C02297CC
:10010000FE010E941709C23CD107C9F70E940707E8
:100110000C948D090C94000061E083E00E946C084F
:1001200061E082E00E946C0861E088E00E946C0857
:1001300061E087E00E946C0861E086E00E946C0844
:1001400061E084E00E946C0860E085E00C946C083B
:1001500060E083E00E946C0861E082E00E946C082D
:1001600061E088E00E946C0860E087E00E946C0813
:1001700060E086E00E946C0860E084E00E946C0809
:1001800060E085E00C946C0861E083E00E946C08FC
:1001900061E082E00E946C0860E088E00E946C08E8
:1001A00061E087E00E946C0861E086E00E946C08D4
:1001B00060E084E00E946C0861E085E00C946C08CB
:1001C00061E083E00E946C0861E082E00E946C08BC
:1001D00061E088E00E946C0861E087E00E946C08A2
:1001E00060E086E00E946C0860E084E00E946C0899
:1001F00061E085E00C946C0860E083E00E946C088C
:1002000061E082E00E946C0861E088E00E946C0876
:1002100060E087E00E946C0860E086E00E946C0865
:1002200061E084E00E946C0861E085E00C946C0859
:1002300061E083E00E946C0860E082E00E946C084C
:1002400061E088E00E946C0861E087E00E946C0831
:1002500060E086E00E946C0861E084E00E946C0827
:1002600061E085E00C946C0861E083E00E946C081A
:1002700060E082E00E946C0861E088E00E946C0807
:1002800061E087E00E946C0861E086E00E946C08F3
:1002900061E084E00E946C0861E085E00C946C08E9
:1002A00061E083E00E946C0861E082E00E946C08DB
:1002B00061E088E00E946C0860E087E00E946C08C2
:1002C00060E086E00E946C0860E084E00E946C08B8
:1002D00060E085E00C946C0861E083E00E946C08AB
:1002E00061E082E00E946C0861E088E00E946C0896
:1002F00061E087E00E946C0861E086E00E946C0883
:1003000061E084E00E946C0861E085E00C946C0878
:1003100061E083E00E946C0861E082E00E946C086A
:1003200061E088E00E946C0861E087E00E946C0850
:1003300060E086E00E946C0861E084E00E946C0846
:1003400061E085E00C946C088430910531F16CF427
:1003500081309105E1F01CF4892BB9F008958230C9
:100360009105B9F0039729F516C087309105D9F0AA
:1003700034F48530910599F00697D9F412C088308D
:10038000910599F00997A9F412C00C948C000C9473
:10039000A8000C94C4000C94E0000C94FC000C9495
:1003A00018010C9434010C9450010C946C010C94C1
:1003B0008801089581E08093620161E089E00E94F4
:1003C0006C0861E08AE00C946C081092620160E0B5
:1003D00089E00E946C0860E08AE00C946C0861E09F
:1003E00083E00E94340861E082E00E94340861E00A
:1003F00088E00E94340861E087E00E94340861E0F0
:1004000086E00E94340861E084E00E94340861E0E4
:1004100085E00E94340861E089E00E94340861E0D0
:100420008AE00E94340861E08BE00E94340860E0BA
:100430008CE00E94340860E08DE00E94340889E07E
:1004400090E090935B0180935A01109259011092B1
:100450005801109260011092620110926101109295
:100460005F0110925E0110925D0110925C0140E804
:1004700055E260E070E083E691E00E94DE0480E0F7
:100480000E94E9070C94D30660E083E00E946C08A8
:1004900060E082E00E946C0860E088E00E946C08E6
:1004A00060E087E00E946C0860E086E00E946C08D3
:1004B00060E084E00E946C0860E085E00E946C08C7
:1004C00060E089E00E946C0860E08BE00C946C08AE
:1004D00081E0809361010E948C0061E089E00E94CC
:1004E0006C0861E08BE00C946C081092610160E094
:1004F00089E00E946C0860E08BE00C946C0810921C
:1005000060010E944402109259011092580189E042
:1005100090E090935B0180935A01089581E080936D
:1005200060010E94440289E090E090935B01809317
:100530005A01109259011092580108958091610159
:10054000882389F080915801909159018D9709F085
:1005500047C065E071E083E691E00E9410060E94CA
:1005600075020C947F0260915A0170915B0177FDD6
:1005700035C080915801909159018930910534F12D
:100580004AE050E083E691E00E94CB0680915A0158
:1005900090915B010E94A40180915A0190915B01AE
:1005A000892B21F483E691E00E94FA050E94DA018A
:1005B000109259011092580180915A0190915B015B
:1005C000019790935B0180935A010895059744F039
:1005D00080916201882321F00C94E5010C9468025B
:1005E00008958091580190915901009739F460E085
:1005F00084E00E946C0861E083E027C081309105AF
:1006000039F460E083E00E946C0861E082E01DC084
:100610008230910539F460E082E00E946C0861E06C
:1006200088E013C08330910539F460E088E00E94CF
:100630006C0861E087E009C08430910541F460E016
:1006400087E00E946C0861E086E00C946C080597D6
:1006500071F460E086E00E946C0861E084E00E9432
:100660006C088FEF9FEF9093590180935801089584
:1006700080915E0190915F018130910541F0209160
:100680005C0130915D012130310509F046C02091B7
:10069000600121110AC062E370E080E090E00E94F6
:1006A00088070E9475020C948E022091540120FD4F
:1006B0000EC0019719F464E171E012C080915C01F1
:1006C00090915D01019749F560E271E01AC02091B7
:1006D0005C0130915D012130310579F46CE271E00B
:1006E00083E691E00E94100689E090E090935B0120
:1006F00080935A010E947F020AC0019771F468E357
:1007000071E083E691E00E9410060E94680262E3B5
:1007100070E080E090E00C94880708956CE271E04E
:1007200080E090E00E94DB066093540170935501D5
:1007300080935601909357018CE00E94A3089093F8
:100740005F0180935E018DE00E94A30890935D019C
:1007500080935C010E94380380916001882319F026
:100760000E949E0202C00E94F10280915801909165
:1007700059010196909359018093580164E670E005
:1007800080E090E00C948807FC0184859585FC014D
:10079000E05CFF4F20813181FC01EE5BFF4F8081E7
:1007A0009181281B390B2F733327C9010895FC0150
:1007B00084859585FC01E05CFF4F40815181FC01FF
:1007C000EE5BFF4F208131814217530741F00190CA
:1007D000F081E02DE80FF91F208130E002C02FEFFB
:1007E0003FEFC9010895FC0184859585FC01E05C1B
:1007F000FF4F40815181FC01EE5BFF4F2081318131
:100800004217530781F0A081B181A80FB91F8C91C5
:10081000208131812F5F3F4F2F7333273183208316
:10082000282F30E002C02FEF3FEFC9010895FC01EF
:1008300081A1882329F0A489B5898C9186FFFBCFFB
:1008400011A20895CF93DF93FC0126853785D90146
:10085000A05CBF4F8D919C91119701968F73992742
:10086000E901CE5BDF4F4881598184179507D9F3A1
:100870000D90BC91A02DA20FB31F6C93A685B785D8
:10088000A05CBF4F11969C938E93A689B7892C913B
:1008900081E090E0078C02C0880F991F0A94E2F76C
:1008A000282B2C9381E081A30488F589E02D808199
:1008B0008064808381E090E0DF91CF910895089576
:1008C0001F920F920FB60F9211242F933F934F93C5
:1008D0008F939F93EF93FF938091C00082FD1CC084
:1008E0004091C6008091090290910A0201968F738F
:1008F000992720910B0230910C028217930771F017
:10090000E0910902F0910A02E753FE4F4083909371
:100910000A028093090202C08091C600FF91EF9104
:100920009F918F914F913F912F910F900FBE0F90FC
:100930001F90189583E691E00E94C403892B11F063
:100940000C945F0408951F920F920FB60F9211241A
:100950002F933F938F939F93EF93FF932091C50124
:100960003091C6018091C7019091C80128173907BD
:1009700031F48091C1008F7D8093C10014C0E0915B
:10098000C701F091C801EB57FE4F20818091C7014C
:100990009091C80101968F7399279093C801809315
:1009A000C7012093C600FF91EF919F918F913F91D6
:1009B0002F910F900FBE0F901F901895CF92DF923E
:1009C000EF92FF92CF93DF93EC016A017B01411517
:1009D00081EE580761057105F9F0EC89FD8981E028
:1009E00090E008A002C0880F991F0A94E2F7808364
:1009F00060E079E08DE390E0A70196010E94CC08C9
:100A00002150310941095109569547953795279548
:100A1000211580E1380798F0EC89FD89108260E8A3
:100A200074E88EE190E0A70196010E94CC08215065
:100A30003109410951095695479537952795E88918
:100A4000F9893083EA89FB89208319A2EE89FF891D
:100A5000408181E090E09C010C8C02C0220F331F8A
:100A60000A94E2F7422B4083EE89FF8940819C0182
:100A70000D8C02C0220F331F0A94E2F7422B4083F1
:100A8000EE89FF8940819C010E8C02C0220F331F2A
:100A90000A94E2F7422B4083EE89FF8920810F8C74
:100AA00002C0880F991F0A94E2F780958223808301
:100AB000DF91CF91FF90EF90DF90CF90089510924B
:100AC00066011092650188EE93E0A0E0B0E08093AB
:100AD000670190936801A0936901B0936A0188E46B
:100AE00091E0909364018093630189EC91E090938D
:100AF000700180936F0185E891E09093720180937B
:100B0000710185EC90E0909374018093730184EC03
:100B100090E0909376018093750180EC90E0909343
:100B200078018093770181EC90E090937A01809333
:100B3000790182EC90E090937C0180937B0186ECBC
:100B400090E090937E0180937D0184E080937F010B
:100B500083E08093800187E08093810185E080932A
:100B6000820181E0809383010895CF92DF92EF921A
:100B7000FF920F931F93CF93DF936C01EB017A01E8
:100B8000E60EF71E00E010E00BC06991D601ED9172
:100B9000FC910190F081E02DC6010995080F191F05
:100BA000CE15DF0591F7C801DF91CF911F910F910D
:100BB000FF90EF90DF90CF9008956115710581F05F
:100BC000DB010D900020E9F7AD0141505109461BB2
:100BD000570BDC01ED91FC910280F381E02D09942B
:100BE00080E090E00895DC01ED91FC910190F081AE
:100BF000E02D09940F931F93CF93DF93EC016DE0E9
:100C00000E94F3058C016AE0CE010E94F3059C016D
:100C1000200F311FC901DF91CF911F910F910895CE
:100C20000F931F93CF93DF93EC010E94DD058C019E
:100C3000CE010E94FA059801280F391FC901DF91E2
:100C4000CF911F910F9108954F925F926F927F9273
:100C50009F92AF92BF92CF92DF92EF92FF920F934B
:100C60001F93CF93DF93CDB7DEB7A1970FB6F8945C
:100C7000DEBF0FBECDBF5C016A017B01922E19A2BF
:100C800081E0821710F08AE0982E8E010F5D1F4FD1
:100C9000492C512C612C712CC701B601A301920182
:100CA0000E94CC088C2D929E8019112401501109AC
:100CB0008A3014F4805D01C0895CF8018083690189
:100CC0007A01C114D104E104F10431F7B801C5017E
:100CD0000E94DD05A1960FB6F894DEBF0FBECDBF12
:100CE000DF91CF911F910F91FF90EF90DF90CF9008
:100CF000BF90AF909F907F906F905F904F900895BE
:100D0000CF92DF92EF92FF920F931F93CF93DF93D7
:100D1000EC016A017B012115310579F4E881F98143
:100D20000190F081E02D642FDF91CF911F910F9101
:100D3000FF90EF90DF90CF9009942A30310519F49D
:100D400077FD0EC02AE0B701A601CE01DF91CF9159
:100D50001F910F91FF90EF90DF90CF900C9424069D
:100D60006DE20E94F3058C0144275527BA014C1906
:100D70005D096E097F092AE0CE010E942406080F52
:100D8000191FC801DF91CF911F910F91FF90EF9034
:100D9000DF90CF9008959A01AB01662757FD6095CB
:100DA000762F0C948006009729F0BC0180E090E03B
:100DB0000C947C0908950F931F93CF93DF9300D079
:100DC00000D0CDB7DEB79B01AC016115710581057F
:100DD000910579F069833A834B835C830E9477099C
:100DE00029813A814B815C810E94EE088B019C0134
:100DF00003C000E010E09801B801C9010F900F9006
:100E00000F900F90DF91CF911F910F9108950E9445
:100E1000AE070E94EF01CAE9D4E00E948E0320973A
:100E2000E1F30E949A04F9CF1F920F920FB60F922E
:100E300011242F933F938F939F93AF93BF938091F0
:100E40000D0290910E02A0910F02B091100230910C
:100E50001502232F2D5F2D3720F40196A11DB11D02
:100E600005C0232F2A570296A11DB11D20931502FC
:100E700080930D0290930E02A0930F02B093100284
:100E80008091110290911202A0911302B09114026C
:100E90000196A11DB11D8093110290931202A0939F
:100EA0001302B0931402BF91AF919F918F913F9124
:100EB0002F910F900FBE0F901F9018950F931F93B7
:100EC0009FB7F89400911102109112022091130221
:100ED0003091140286B5A89B06C08F3F21F00F5FAA
:100EE0001F4F2F4F3F4F9FBF322F212F102F002713
:100EF000080F111D211D311D42E0000F111F221F7F
:100F0000331F4A95D1F7B801C9011F910F91089578
:100F1000CF92DF92EF92FF92CF93DF936B017C0130
:100F20000E945E07EB010EC00E945E076C1B7D0BEA
:100F3000683E734038F081E0C81AD108E108F10832
:100F4000C851DC4FC114D104E104F10469F7DF9109
:100F5000CF91FF90EF90DF90CF900895789484B573
:100F6000826084BD84B5816084BD85B5826085BDA5
:100F700085B5816085BDEEE6F0E08081816080838B
:100F8000E1E8F0E01082808182608083808181606E
:100F90008083E0E8F0E0808181608083E1EBF0E035
:100FA000808184608083E0EBF0E0808181608083D9
:100FB000EAE7F0E0808184608083808182608083C2
:100FC0008081816080838081806880831092C100ED
:100FD00008958E3008F08E5087702091040140E40F
:100FE000249F90011124822B80937C0080917A00B1
:100FF000806480937A0080917A0086FDFCCF2091F6
:10100000780030917900932F80E0AC01422B9A0157
:10101000C9010895833069F028F48130A1F082304D
:1010200011F514C08630B1F08730C1F08430D9F4A6
:1010300004C0809180008F7703C0809180008F7DF5
:1010400080938000089584B58F7702C084B58F7D2A
:1010500084BD08958091B0008F7703C08091B00067
:101060008F7D8093B0000895CF93DF9390E0FC01D3
:10107000E458FF4F4491FC01E057FF4F84918823CF
:1010800041F190E0880F991FFC01E854FF4F259132
:101090003491D90182559F4FFC0185919491C82FBD
:1010A000D92F9FB7F8948C91611106C04095842385
:1010B0008C938881842308C0623041F4242F2095CA
:1010C00082238C938881842B888302C0842B8C9309
:1010D0009FBFDF91CF9108950F931F93CF93DF931D
:1010E0001F92CDB7DEB7282F30E0F901E859FF4F46
:1010F0008491F901E458FF4F1491F901E057FF4F33
:1011000004910023D1F0882321F069830E940A080A
:101110006981E02FF0E0EE0FFF1FE255FF4F859150
:101120009491DC019FB7F8948C91611103C01095E4
:10113000812301C0812B8C939FBF0F90DF91CF91B2
:101140001F910F910895CF93DF93282F30E0F9017D
:10115000E859FF4F8491F901E458FF4FD491F90108
:10116000E057FF4FC491CC2389F081110E940A08F7
:10117000EC2FF0E0EE0FFF1FEC55FF4F859194919F
:10118000DC018C918D2321E030E011F420E030E08F
:10119000C901DF91CF910895A1E21A2EAA1BBB1BB2
:1011A000FD010DC0AA1FBB1FEE1FFF1FA217B30733
:1011B000E407F50720F0A21BB30BE40BF50B661F49
:1011C000771F881F991F1A9469F76095709580950D
:1011D00090959B01AC01BD01CF010895052E97FBB1
:1011E00016F4009407D057FD0DD00E94CC0807FCE0
:1011F00009D07EF490958095709561957F4F8F4FC3
:101200009F4F089550954095309521953F4F4F4FF2
:101210005F4F08950E941B09A59F900DB49F900DEC
:10122000A49F800D911D11240895EE0FFF1F0590BE
:10123000F491E02D0994A29FB001B39FC001A39F38
:1012400001D0B29F700D811D1124911D08958F92C0
:101250009F92AF92BF92CF92DF92EF92FF92CF9385
:10126000DF93EC01688179818A819B816115710529
:101270008105910521F464E279ED8BE597E02DE19C
:1012800033EF41E050E00E94EE0849015A019B0112
:10129000AC01A7EAB1E40E940A096B017C01ACEE43
:1012A000B4EFA50194010E948809C60ED71EE81E5E
:1012B000F91EF7FE06C081E0C81AD108E10880E8EF
:1012C000F80AC882D982EA82FB82E894F7F8B6016C
:1012D000C701DF91CF91FF90EF90DF90CF90BF904B
:1012E000AF909F908F9008950E942709089580E005
:1012F00091E00E9427090895609300017093010115
:1013000080930201909303010895B7FF0C940A099A
:0E1310000E940A09821B930B0895F894FFCFE8
:10131E00010000000141726D616E646F20426F6DBD
:10132E006261210044657361726D616E646F31009C
:10133E004578706C6F64696E646F310044657361DB
:10134E00726D616E646F32004578706C6F64696E99
:10135E00646F3200000000002204B505C403F303DD
:04136E00D703170486
:00000001FF
